:1040000040C3002057000500018C0100C9F90400DD
:10401000A70A0A010042000004180FAC906AD00100
:104020000000000000000000000000000000000090
:10403000000000001C34050000000000000000002B
:104040000000000000000000FFFFFFFFFFFFFFFF78
:10405000FFFFFFFF00600B000000000000000000F9
:10406000FFFFFFFFFFFFFFFF8000000000000000D8
:104070000000000000000000000000000000000040
:10408000000000000000000018FF002018FF0020C2
:1040900040C30020E99A0500DC000500E0B90020DB
:0C40A000E410002000E00B000000000015
:1042000040C3002057000500018C0100C9F90400DB
:10421000ADC90300CDF90400D1F90400000000008D
:1042200000000000000000000000000067CE000059
:10423000D5F904002BB5000013D300001F7901004D
:10424000DDF90400DDF90400DDF90400DDF9040006
:10425000DDF904004DCC030005AE0000DDF90400DB
:10426000DDF90400DDF904003DBD0100DDF90400C5
:10427000DDF904008BCE0100DDF90400DDF9040056
:10428000DDF90400DDF90400DDF9040027790100FF
:10429000DDF904002D550400DDF90400DDF904000A
:1042A000DDF90400975804007D580400DDF904008E
:1042B000DDF90400DDF90400DDF904007BAD040044
:1042C00043AD040041AD0400F9A7040079AD04003A
:1042D00045AD040049AD040047AD040079C80400B1
:1042E000B1AD0400DDF90400DDF9040031950000F2
:1042F000DDF90400074F0400DDF90400377A0100FE
:10430000DDF90400DDF90400DDF90400DDF9040045
:10431000DDF90400DDF90400DDF90400DDF9040035
:10432000DDF90400DDF90400DDF90400DDF9040025
:10433000DDF90400703110B403000A007649002949
:104340001CD075480468600702D55FF0FF3017E0A5
:10435000D80705D47248044202D07FF001000FE074
:1043600013EA0400904207D16D14502105E00020AB
:1043700003E0491EE0E77FF0020010BC70472DE922
:10438000F041050014006548056062480068404E31
:10439000202A30E0DFF884810868C8F800000F1D8B
:1043A000241F002C14D008210820FFF7BFFF0600AF
:1043B000300040B2002805D00420594908600E3072
:1043C0000118E0382C123F2C1003E8E704205318A2
:1043D0001001002121302004A7FF804640463043D1
:1043E00004D112529E12100DBDE8F081F8B5040000
:1043F000E00401D10120009C1015C0B241480568BD
:1044000015F480352D0C434E41F67130306001209B
:10441000424C70053D48046002203D56A0047CFFDC
:1044200007003800561273121001012038221001C3
:104430002800C018200401D000203060242004F29D
:10444000BD2DE9F24FE68006002615F00300002896
:1044500070800214F0030F0E200C2148076817F437
:1044600080373F0CDFF890808021D410010120219B
:1044700056101CA946DDF800A0002C20D019F5002C
:1044800050400B4003B0EB0900844201D2A3460721
:10449000E01444165B5FEA5B3B5FEA4B3BBBEB0916
:1044A0000B5A4651464846FFF74FFF062C100ED1D7
:1044B0001BEB0909DA44B4EB0B04DCE701200E52D4
:1044C0003238A81202A821662546100DBDE8F28FE9
:1044D000809698001C000340020001B210010340C6
:1044E0001804121004123C04130C100400012003E1
:1044F00040000000202800D37047F0B500220FF6DE
:1045000030230FF22C2402EB001554F825500FF243
:1045100020062F0906EB001603EB071705F00F0521
:10452000B65C7D5D75408D54521C102AEBD3F0BDF6
:10453000FE236CAE7C7F03E07AF42CAF78A92E26A4
:104540005224A794FAFB6D50EA767032037CB29F36
:1045500092FA567379293EC6349D3A4B830633D579
:104560009D8BE518171AF73551BD2F5F90E34E73F9
:104570002A0D2B62EBC021FE5CC7498C7A2D56595F
:10458000E0A37E7C32A02A11DE9AED224D61E5DCAB
:10459000C802B6EAE4AED8C1FFA14BF4E2C7512687
:1045A00018C1093D96180A5709C974B8D595779B63
:1045B0003958902D9CA8C0CA2CC618A74F01422478
:1045C0001131C0A41A439A088BD842FF512478199C
:1045D000A73BCA1016BCD540FBB1EC8A66E1692541
:1045E000A44955D3981DF42B9C5B9A6FE7B257876B
:1045F000A97ADB45A6C2B3AF34886ACF941DD181B6
:104600006EFA456AB04B64414261C01FD1BCD3BE53
:1046100048CB3608EC5B6088367483C3DDE3553CD9
:10462000F071BA54DC7ED30BC92F3DDDF5201FD1CC
:104630006C9B925D27BD87718A7C91A245FC50924C
:1046400004F1654D1FFE45F674732BFCC47816FA11
:1046500049FE8B86E3B8EB9F14B0D00DEB5CCF1412
:1046600047BBBD36C06D6FEB8F42D6119B52292ED2
:1046700020CB8E98F73F24D4FCA64BC4BD2E6BCA2A
:1046800028A9E25B042C53C2D3806D92645B6C1D3D
:1046900032DBAF2FEFD29363B3CE99EF6EC6326D9C
:1046A00007D1C23B0B7F1F64CCFE6D5EDE68518C70
:1046B00013912AEA942F6BFFEC2CC84951373A9991
:1046C00032A646B6AA57BC9B0E0F0DB29569B51A15
:1046D0001A4DDF11B9F2C85344AF6783BD3B6B4D30
:1046E00045D72BCFA0EF9D466E17092155D52CC578
:1046F000C28C259C3BA3FE37D5A9C013D20A234107
:1047000090E90D596EAB740AF8496066A6DE29FE81
:10471000536DC57A5D60A74FC422E3E0CF53F8F331
:1047200059582A195AB8540261DF2E55486508278E
:1047300054010000650100003E010000BC000000C3
:104740001C0000002B010000D2010000E00000006E
:1047500031010000210000006D010000A9010000EE
:10476000170100000E010000710100005800000058
:10477000DC010000CB010000FE000000C5010000CC
:10478000D70000007B00000032000000090100009B
:1047900014000000EE000000BF000000EA0100006D
:1047A0004C000000A80000009C01000092010000E5
:1047B0007D0100006B000000CF0000006D000000D4
:1047C000E8010000A201000089000000E9010000EA
:1047D000CD00000036000000FA000000A700000035
:1047E00096000000AA000000EF0100006100000038
:1047F00028010000EB010000A2000000D70100002A
:10480000D401000051010000FD00000087010000FC
:10481000A0000000B7010000F70000004B000000FE
:10482000AF0000000C000000350000007300000025
:104830007B01000022010000CE000000A400000067
:10484000DD0000009E000000E300000016000000F4
:1048500093010000A5010000D500000058010000F0
:104860003100000083000000260100004600000027
:10487000180100006801000029010000B5010000D6
:1048800013000000C1000000FB000000BA0000009F
:10489000C2010000C8000000BD010000E7000000E8
:1048A000A801000081010000FC0100007601000069
:1048B000C60000001E010000AC0000005E01000008
:1048C0001D000000510000008B010000940000005A
:1048D0009E0100002C0100009A010000EC01000084
:1048E00088010000950100008600000060000000C3
:1048F0001501000020000000EE0100006A00000029
:104900001A00000074010000A6010000BB010000B5
:1049100034010000C0010000050000007301000028
:1049200098010000F60100003D010000A001000018
:104930007C000000CD0100005D000000C900000007
:104940005701000077010000CE010000D1010000F6
:10495000760000004300000032010000FF0100006B
:10496000F2010000FA0100005000000039000000D0
:10497000040100004900000047000000B9010000E8
:10498000640100000B01000005010000BC010000F3
:1049900061010000F40000005A0100007A010000EB
:1049A0001100000064000000AA0100009300000054
:1049B0007F00000060010000200100005F01000096
:1049C0005A0000007100000075000000B8000000EF
:1049D000D6000000C3010000EB0000000101000050
:1049E0008D0000001E0000003A010000E5010000FB
:1049F0000A010000CC00000016010000F0010000D8
:104A000021010000F9010000D30000006500000052
:104A1000960100009A000000F8010000AD010000BE
:104A20009F000000A30000009D0100001201000093
:104A3000F20000005301000097010000590100003E
:104A4000840000000301000089010000AB000000A9
:104A50009D0000009F0100002D0100006F0000007C
:104A6000070000007200000085000000E301000064
:104A7000C30000004E000000080100002E010000ED
:104A8000C0000000DF0000008B00000015000000E7
:104A90002A010000B9000000AB010000780000000E
:104AA0002A0000005300000042010000280000001E
:104AB00006000000F70100001B000000820000005B
:104AC000DA010000020100006E0000009B000000FF
:104AD0004B01000025010000990000004101000089
:104AE000EA000000FF000000290000009000000024
:104AF0004A0100003B0100001901000048000000CD
:104B0000DF0100006F01000040000000CB0000004A
:104B1000DE0000005F0000007F010000BA0100001D
:104B20001A010000F1010000DC000000A6000000F6
:104B30009B0100004D010000A10100005200000097
:104B4000F00000007E0100000B000000E600000005
:104B50003000000074000000E60100005900000071
:104B60005B010000AE0000008700000003000000B1
:104B70008100000099010000B00000000900000061
:104B80003B0000002D00000010010000D8010000D3
:104B9000500100006E0100003700000072010000AB
:104BA0003F000000E2000000E800000038000000C4
:104BB000100000000C0100005E0000005500000025
:104BC0004E01000044010000C70000003300000057
:104BD00075010000C1010000A9000000ED01000006
:104BE000B40100008F010000D4000000AF010000FC
:104BF000A500000067000000E0010000E2010000E5
:104C0000B10000008800000092000000A301000035
:104C1000B60000009401000062000000480100009E
:104C2000DB000000550100001F00000086010000AD
:104C3000F50100005C000000B0010000110100005F
:104C400097000000BB00000012000000630000009D
:104C50006A0100008A01000000000000D901000084
:104C60009800000085010000790100001301000098
:104C700045010000DA000000E4000000C901000066
:104C8000B3000000FC00000045000000D50100005A
:104C90003F010000F30100002B0000009101000023
:104CA0008C01000069000000D900000068000000CD
:104CB000B101000019000000CC010000AE010000AD
:104CC0008C000000EC000000C4000000390100006E
:104CD000B4000000B50000007C010000F9000000F5
:104CE0000400000001000000D10000004D000000A1
:104CF000BF010000470100006C010000ED00000052
:104D000035010000D30100009C000000D800000025
:104D100041000000770000008A000000250000002C
:104D2000C40100000A000000490100000F0100005A
:104D3000B200000036010000080000004F00000033
:104D4000D000000030010000CA000000B6010000E1
:104D5000AD00000063010000DB0100002400000042
:104D60005600000057000000F50000003E00000063
:104D7000440000008E0000002F0000003A000000F8
:104D8000F1000000DD01000095000000E5000000DA
:104D90008F0000003C000000690100000D000000D1
:104DA000E70100008000000027010000EF00000084
:104DB00026000000FB010000430100001D0100006F
:104DC000230100008E010000BD000000D60100009C
:104DD0002F010000C701000083010000C80100008E
:104DE000C60100007000000067010000060100001D
:104DF00034000000A1000000420000002700000075
:104E0000800100004C0100000E00000002000000C4
:104E1000B30100001C010000180000007001000038
:104E2000C5000000DE010000E9000000660100008E
:104E300033010000B80100004F010000D200000063
:104E40004601000022000000C20000008D010000A9
:104E5000790000001F0100007A000000E10100005D
:104E60005C0100002E00000017000000520100004D
:104E700024010000B7000000560100003C010000C2
:104E8000140100004A0000005D010000CF01000095
:104E9000BE010000B2010000F8000000AC010000FB
:104EA0006600000000010000A70100003D000000B6
:104EB000910000002C0000007D0000005400000064
:104EC000F3000000E4010000A4010000380100002C
:104ED000CA010000620100000F000000370100005D
:104EE0005B000000FE01000078010000FD010000F1
:104EF000F4010000070100001B010000D0010000C8
:104F0000230000006B01000090010000E1000000A0
:104F10008401000082010000BE0000000D010000BD
:104F20006C0000007E000000F60000004001000060
:104F3000D395073387C45685F4800967C720575136
:104F4000578432F185091B72D3E7E0C4501E3F55E8
:104F5000BF809807F1487C2076CFDF68E92175652E
:104F6000BF22AA36FA7ECE1C65004F5004DB7BD7E9
:104F7000125D9BCA69A4B2F484D52BA14534780193
:104F80006FE8353599BFB23E52E5C30D8C38D35624
:104F90003C5AEB72D24B506EDBDE17B3D21EB6C951
:104FA0004E0BD958A0401BC34B45CDEC107BEB8179
:104FB000459F7DAF2ABBEDA6BFD8EC69D63FA2DDE9
:104FC000FC758D6B81696520828390F794277AAB9D
:104FD000BBDDD8920F9B94F46023A02360B6AB5D39
:104FE0002C56EF5CD3F31E73B136C234CBA7E3BBB0
:104FF00043A72A69C941CB8DD48CDD67E9122DE620
:10500000F8ECDF07182C9832EA45BBF585C27267C9
:105010008E4CEBB8AC2A785B66A8BB72B45C1D3BC7
:10502000E706A3C0F52A04DE1FCAF71674718DA324
:10503000782C647413DB05847ACC3601C74ECC2DF2
:105040008724D0DC8A90B41A2B0C352318E29A3BC3
:10505000E5D2341ED40AFCD52CF6D610F77D99B7CC
:1050600009159232FE5602174BA96E99F1F90E8F6F
:1050700059606773EFFE3B46AACD5218104624B51F
:10508000EF18AA35AA94A715B0297B8CBB9EBD7ECC
:105090004D526EFE604CF86F40B13157B5581A3A18
:1050A0002802B09466873F7F7F349764B19028923E
:1050B0000CA942BB6F9A3B3C359D30826BFFFBBA1B
:1050C0003FCBC871FC265A8ADDEE7CF6D887BC70CF
:1050D000FBCDD15F14044BA63FC025F0721E482FB4
:1050E00051164C111F8F28AC84DF8359F528887F17
:1050F000446158E5E11290AC3479BD008676D5BDA7
:10510000F0CD711BA9C28035B086D3CBE8E4F6A5FB
:10511000413D5C8F33BA4073A1925DD80992313A18
:1051200088E234727DCD652279C8593B0AE737AEF3
:1051300070B504000D0016003000C0B200F081F917
:10514000002020703000C0B2A84700F089F970BD7F
:1051500080B5012288498948FFF7EAFF01BD80B583
:10516000012287498748FFF7E3FF01BD80B501228F
:1051700085498648FFF7DCFF01BD80B502227E49E4
:105180008348FFF7D5FF01BD80B50A227A498148DF
:10519000FFF7CEFF01BD80B50A2279497E48FFF7AF
:1051A000C7FF01BD80B50B2273497C48FFF7C0FFE4
:1051B00001BD80B50B2272497948FFF7B9FF01BDE7
:1051C00080B514226C497748FFF7B2FF01BD80B566
:1051D00014226B497448FFF7ABFF01BD80B5142260
:1051E00072497348FFF7A4FF01BD80B515226249DB
:1051F0007048FFF79DFF01BD80B5152260496E48DC
:10520000FFF796FF01BD80B5012000F069FA6B48F9
:1052100000F0FAF96A49087001BD80B500F078FA2B
:10522000012803D06648007800F0D8F901BD70B4B9
:10523000030000242000C0B2624D2D8880B2A84235
:1052400017D2614D2600F6B20C20464305EB06004E
:1052500005781E00F6B2B54209D145880E00B6B2F7
:10526000B54204D105791600F6B2B54202D0641CED
:10527000E0E7002070BC704738B505000C00002C3A
:1052800003D1280000F026F909E0B4F1004F04D260
:105290002100280000F029F901E0022000E00020B0
:1052A00032BD38B504000D00B5F5000F04D2290257
:1052B0002000FFF7E1FF00E0022032BD2DE9F047BA
:1052C0000700884691469A46089E099D4A46D2B2F2
:1052D000414689B23800C0B2FFF7A9FF0400002C94
:1052E0000FD03800C0B200F053FF002809D051465B
:1052F000A068FFF7C1FF002803D16671A5710020E7
:1053000000E00220BDE8F087FEB504000D001600A5
:105310001F009DF8200001903800C0B200903300BB
:105320000122290089B22000C0B2FFF7C7FFFEBDED
:10533000FEB504000D0016001F009DF8200001902E
:105340003800C0B2009033000022290089B220004A
:10535000C0B2FFF7B3FFFEBD7CB504000D00160020
:105360000020009000233200290089B22000C0B242
:10537000FFF7DEFF76BD00005174010064D5002008
:10538000C7FE04006CD500201B04030074D5002068
:105390007CD5002084D500208CD5002094D5002019
:1053A0009CD50020A4D50020ACD500202976030090
:1053B000B4D50020BCD50020C4D5002050C60020A4
:1053C000E3FD002080CF002044C5002070B504001C
:1053D0000D0016003200D2B2290089B22000C0B2FE
:1053E000FFF725FF0100002904D000208A68107013
:1053F000002000E0022070BD38B504000D0001223D
:10540000290089B22000C0B2FFF7E0FF32BD38B5F5
:1054100004000D000022290089B22000C0B2FFF76D
:10542000D5FF32BD12481349086000207047C0B252
:10543000002801D1002000E07020C0B27047002099
:10544000704710B504002000C0B200F017F801004A
:105450000800C0B2FF2801D1A32000E0002010BD49
:105460000020704770470448007870470000000033
:1054700068950500D4DA00201CD6002010B5040081
:105480002000C0B200F006FF01000800C0B2FF28F3
:1054900001D1FF2000E0002010BD00210170704705
:1054A00038B504000D0029002000FFF7FAFE32BDD8
:1054B00038B54478456801F07BFE0C214C438B499C
:1054C0008B4B0A59521B9A4238BF0D51BDE83240EE
:1054D00001F074BE10B5044601F0A8FE606004201F
:1054E00020702046BDE81040E2E738B504460D467E
:1054F00001F09CFE2D186560012020702046BDE85B
:105500003240D5E710B50446207860B1042806D0B3
:1055100001F08CFE6168764B421A9A4201D200205B
:1055200010BD081A10BD4FF0FF3010BD70B5044615
:1055300001F07CFE054601F03BFE064660686FF018
:10554000004100F02DF8451925603046BDE8704057
:1055500001F034BEF8B505460E46144601F066FE6D
:10556000024600239CB1FF20207010E0087860B153
:10557000042811D048685E4F111AB9420CD3801A22
:10558000B04202D2064604B123705B1C083529687C
:105590000029EBD13046F2BD04B123700020F2BDEA
:1055A0000022D7E770B5054601F040FE0646514C93
:1055B00010E0017869B1042904D041684C4A711A9D
:1055C000914206D204230370206069688847002056
:1055D0002060083528680028EBD170BD10B504465E
:1055E00001F024FE0C225443404A414B1159401A09
:1055F000984207D214446068FFF7D4FF2046BDE804
:10560000104093E710BD000070B504463A4E3B4A87
:1056100070781378984204D35FF0F60138A001F057
:105620006BFE75780C20314A2B464343691C717020
:10563000D11801264C600E7200E0457054F8080B3A
:105640000028FAD10846FFF771FF284670BD000018
:10565000F8B50C244FF0FF3160430091234D05F164
:10566000080100220A54244E96F8000020B301F0ED
:105670008DFF20B940F22F1121A001F03DFE01F075
:10568000D5FD02460023DFF868C005E0009881429E
:1056900088BF014600915B1C7178D8B288420FD256
:1056A00060432958571A674506D305F10807385C47
:1056B000891A08B90029E9D101F075FF0020F2BD6F
:1056C000684601F09DFF10B9684601F0D2FD012047
:1056D000F2BD0C214843054B012218440272704769
:1056E00005490870704703480068704750F600206D
:1056F000010000808CF60020E1FD0020B09505003F
:105700006576656E742D636F6E74726F6C2E6300B8
:105710000248007870470149087070479AFE0020DF
:1057200010B590B006A8DFF8601AD1E90023C0E9EF
:1057300000230CA8DFF8541A102201F087FF08A8F4
:10574000DFF8441B102201F081FF02A8DFF83C1BA8
:10575000D1E90023C0E900236846DFF8341BD1E912
:105760000023C0E900230721002204AC200001F03F
:10577000B1FF0720DFF8481B087000200100C9B204
:10578000072944DADFF83C1B06AA0300DBB2D25C2F
:105790000300DBB21B01CA540CAA0300DBB232F8CF
:1057A00013200300DBB21B010B445A8008AA03003C
:1057B000DBB232F813200300DBB21B010B449A80EA
:1057C00002AA0300DBB2D25C0300DBB21B010B4474
:1057D0009A71DFF87C2B6B460400E4B21B5D02EB90
:1057E000C3020300DBB21B010B449A6004AA03004E
:1057F000DBB2D25C0300DBB21B010B441A73012243
:105800000300DBB21B0119444A73401CB6E710B019
:1058100010BDDFF8AC0A00787047DFF8A81AC0B2F4
:1058200000010844407B10F0010070470100C9B23C
:1058300041290AD00100C9B2422906D00100C9B2EB
:10584000432902D0C0B2442801D1012000E0002049
:10585000C0B270470100C9B2412902D0C0B242288B
:1058600001D1012000E00020C0B270470100C9B2A0
:10587000432902D0C0B2442801D1012000E0002019
:10588000C0B270472DE9F84F0700884691469A4606
:105890000A9D0B9E33009BB22A00D2B2414689B2C8
:1058A0003800C0B200F09AFB0400002C14D0042190
:1058B000200001F042FB8346584600280CD03800F7
:1058C000C0B2FFF7BEFD5246D2B24946C9B2380057
:1058D000C0B2D847FFF7C4FDBDE8F18F2DE9FE4FF8
:1058E0008046894614009A460C9D0E9F002C2ED0AF
:1058F000002D2CD0504680B2002828D028780007F0
:1059000001D5402200E080223B009BB2D2B26188E8
:10591000207900F063FB0600002E18D0082130002B
:1059200001F00BFB83465846002810D02079FFF782
:1059300088FD9DF834000190009553469BB22200EB
:10594000494689B24046C0B2D847FFF789FDBDE855
:10595000F78F2DE9F04706000F0090469946089D05
:105960002B009BB24A46D2B2390089B23000C0B295
:1059700000F034FB0400002C2CD0280080B200285A
:1059800013D10221200001F0D8FA824650460028A7
:1059900020D03000C0B2FFF754FD414689B230003C
:1059A000C0B2D047FFF75CFD14E01021200001F0E9
:1059B000C4FA8246504600280CD03000C0B2FFF72F
:1059C00040FD2A0092B2414689B23000C0B2D047B1
:1059D000FFF746FDBDE8F0872DE9F74F8046994671
:1059E0000C9D0D9E0E9F2B009BB24A46D2B2BDF875
:1059F00004104046C0B200F0F1FA0400002C01D1BE
:105A0000862021E05FF0000A280080B2002819D12A
:105A10002021200001F091FA83465846002811D039
:105A20004046C0B2FFF70DFD0F9800903B00DBB27F
:105A30003200D2B2BDF808104046C0B2D847824604
:105A4000FFF70EFD5046C0B2BDE8FE8F2DE9F041D4
:105A50000400A5682078FFF7F4FC002630002979BF
:105A6000C0B2884217D229683200D2B21420424311
:105A700001EB0208B8F80010207801F06FFE012158
:105A8000404601F05AFA07003800002801D020787B
:105A9000B847761CE2E7FFF7E3FCBDE8F08110B5FC
:105AA0000024FFF7B6FE2100C9B281420FD22000C8
:105AB000C0B2FFF7B2FE002807D0DFF808082100C7
:105AC000C9B209010844FFF7C1FF641CE9E710BD32
:105AD0002DE9F84185B005000E00170098460C9C92
:105AE000002001908DF80850ADF80A608DF80C8008
:105AF000ADF80E70ADF81040002000900023002299
:105B000001A902A800F0EBF8019806B0BDE8F08109
:105B10000100DFF8FC2800238A4206D210798006B3
:105B200001D5D078C3180C32F6E7DFF8980A9BB29B
:105B3000184470472DE9FE4F06000C0017009846E8
:105B40000C9DB8788DF80000280080B2002802D1A2
:105B500097F8039000E0A9469DF80000FFF77AFE51
:105B6000002807D04846421ED2B22100300002F081
:105B700034FC33E09DF80000FFF778FE002807D0E2
:105B8000B9F1020292B22100300002F050FC25E08F
:105B90004046C0B200280BD1280080B2002807D0B0
:105BA0002800F97880B289B2884201D2892016E0B3
:105BB000002C0AD1F87801905FF0000AB3465246F3
:105BC0000199584601F086FD08E097F803A001947A
:105BD000B34652460199584602F0B2FD0020BDE896
:105BE000FE8F30B40300002420000D0080B2ADB25F
:105BF000A84209D218881500ADB2A84201D1588830
:105C000003E01B1D641CEFE7002030BC704710B59B
:105C10000400DFF8FC07201A0C2190FBF1F00200D1
:105C200092B2DFF8A4090188DFF8A009FFF7D9FFD5
:105C300010BD38B504000D002088B0F57C4F03D3AB
:105C4000200000F006F802E02800FFF7E0FF80B235
:105C500032BD10B50400DFF87809201A142190FB3A
:105C6000F1F0020092B2DFF86C090188DFF86809F0
:105C7000FFF7B7FF10BD38B504000D002088698814
:105C8000884210D1207B297908420CD02088B0F5B9
:105C90007C4F06D32000FFF7DCFF298980B28842C1
:105CA00001D1012000E00020C0B232BD70B5040077
:105CB0000D0016002888F18888420DD12088B0F5A3
:105CC0007C4F07D229002000FFF7B3FF318980B253
:105CD000884201D1012000E00020C0B270BD2DE952
:105CE000FF4F85B0040000250026FFF792FD31002C
:105CF000C9B2814280F0DA80DFF8C8053100C9B24C
:105D00000901415C2278914240F0C7803100C9B25C
:105D100009010844D0F808803000C0B2FFF77DFDCB
:105D2000002800F0C18000200700380098F8041017
:105D3000C0B2884280F0B880D8F800103A00D2B2E1
:105D40001420424301EB020921004846FFF793FF6C
:105D5000002800F09D805FF0000A5046B9F8081056
:105D600080B2884280F09780D9F80410524692B2EF
:105D70000C20424301EB020B220059464846FFF734
:105D800095FF002879D00698002802D00698C0F820
:105D900000B09BF80400800604D55846FFF7B8FE13
:105DA000029005E0DFF83408290089B20844029027
:105DB0009DF84800002813D007980490029803909B
:105DC00059464846FFF735FFBBF80030020092B253
:105DD0006188207801F0BDFC00281AD17E2066E0A1
:105DE0000798002801D1002061E0029804900798EC
:105DF000039059464846FFF71CFFBBF800300200ED
:105E000092B26188207801F09FFC002801D17E20A9
:105E10004DE09BF80400C00623D59DF848000028FB
:105E20000DD059464846FFF704FF0799009103003B
:105E30009BB25A466188207802F0CEFF10E05946A6
:105E40004846FFF7F6FE9BF8031089B201910799C7
:105E5000009103009BB25A466188207802F076FFD9
:105E600009E0BDF8200000909DF848305A4604999A
:105E70000398FFF75FFEC0B219E09BF8040010F032
:105E8000300F02D19BF8030045191AF1010A64E7AB
:105E9000B9F80A0045197F1C47E73100C9B209016A
:105EA00008448068C0884519761C1EE7862009B022
:105EB000BDE8F08F2DE9F84304000D0016001F0027
:105EC0005FF0000840462179C0B2884235D221688F
:105ED0004246D2B21420424301EB0209B9F8000055
:105EE000290089B2884225D13000C0B200280FD0E5
:105EF0003000C0B2802803D199F80C00000607D406
:105F00003000C0B2402815D199F80C00400611D5D8
:105F1000B9F80000B0F57C4F0AD34846FFF799FE68
:105F2000390089B2884203D0380080B2002801D1FC
:105F3000484603E018F10108C4E70020BDE8F283F9
:105F400070B504000D00160033009BB2002229003A
:105F500089B22000C0B200F041F8002801D0012031
:105F600000E00020C0B270BD70B504000D00160046
:105F700033009BB24022290089B22000C0B200F059
:105F80002DF8002801D0012000E00020C0B270BD33
:105F900070B504000D00160033009BB2802229006A
:105FA00089B22000C0B200F019F8002801D0012009
:105FB00000E00020C0B270BD38B504000D00002321
:105FC0004022290089B22000C0B200F007F8002862
:105FD00001D0012000E00020C0B232BD2DE9F04127
:105FE00004000D0016001F002000C0B200F052F99E
:105FF00080464046C0B2FF2801D100200FE03B00A0
:106000009BB23200D2B2290089B2AE48C4465FFAD0
:106010008CFC5FEA0C1C60448068FFF74BFFBDE816
:10602000F08170B504000D00160000233200D2B2DA
:10603000290089B22000C0B2FFF7D0FF70BD2DE962
:10604000F04104000D0016001F002000C0B200F057
:1060500029F980464046C0B2072810DA3B009BB2BF
:106060003200D2B2290089B29648C4465FFA8CFC4D
:106070005FEA0C1C60448068FFF71CFF00E0002012
:10608000BDE8F08170B504000D00160033009BB22E
:106090004022290089B22000C0B200F00CF870BD87
:1060A00038B504000D000022290089B22000C0B2DA
:1060B000FFF7E8FF32BD2DE9F84304000D0016009C
:1060C0001F005FF000083B009BB23200D2B22900F3
:1060D00089B22000C0B2FFF781FF002801D1FF2064
:1060E00029E05FF00009FFF794FB4946C9B28142FD
:1060F0001FD274484946C9B20901415C2200D2B29C
:10610000914216D03B009BB23200D2B2290089B234
:10611000CC465FFA8CFC5FEA0C1C10F80C00FFF711
:106120008EFF002802D018F10108FFE719F10109DC
:10613000D9E74046C0B2BDE8F28370B504000D0057
:106140000026FFF766FB3100C9B2814218D25D49D3
:106150003000C0B20001085C2200D2B290420DD1E2
:106160002800C0B2002806D03000C0B200010844A8
:10617000407BC00702D53000C0B202E0761CE0E7E9
:10618000FF2070BD00000000AC090500B409050047
:1061900038B5040000212000C0B2FFF7CEFF050093
:1061A0002800C0B2FF2801D1002003E02800C0B2BF
:1061B000FFF733FB32BD2DE9F04704000D0000214D
:1061C0002000C0B2FFF7B9FF06003000C0B2FF28C0
:1061D00001D1002056E0DFF8EC803000C0B20001B1
:1061E0004044477B17F001072800C0B200280CD0BC
:1061F0003000C0B200014044407B50F0010031004B
:10620000C9B209014144487305E000203100C9B218
:1062100009014144487338002900C0B2C9B288421C
:106220002FD02800C0B2002806D03000C0B2000134
:106230004044FFF70BFC24E05FF0000948463100C2
:10624000C9B20901414489680979C0B2884218D2AB
:106250003000C0B200014044806801684A46D2B2B2
:106260001420424301EB020A9AF80C20D2B2D20960
:10627000BAF800102000C0B2FFF7A8F819F1010920
:10628000DCE70120BDE8F087C4090500D40905005A
:10629000DC09050010B5040001212000C0B2FFF7A1
:1062A0004CFF10BD10B5040000212000C0B2FFF764
:1062B00044FF10BD0349C0B20001085C70470000F4
:1062C00099FE00201CD60020F8B505000E0028001D
:1062D000C0B2FFF7DFFF020000211000C0B2FF28AC
:1062E00001D1002033E0DFF8F8021300DBB21B011C
:1062F00003449868002801D1002028E000273800D6
:10630000D3F808C09CF804C0C0B260451DD298689C
:10631000D0F800C0BE465FFA8EFE142000FB0EFED1
:106320000CEB0E0004003000C0B2002803D0207B2C
:10633000400600D5491C3000C0B2002803D1207BA4
:10634000000600D5491C7F1CD9E70800C0B2F2BD89
:10635000C416050010B504002000C0B2FFF79AFF74
:1063600001000800C0B2FF2802D14FF6FF7004E020
:106370009B48C9B209010844808810BD2DE9F0414D
:1063800005000E0017002800C0B2FFF783FF0200CF
:1063900000211000C0B2FF2801D1002036E0904853
:1063A0001300DBB21B0103445FF0000C6046D3F81E
:1063B00008E09EF804E0C0B2704526D29868D0F894
:1063C00000E0E0465FFA88F8142000FB08F80EEBC6
:1063D000080004003800C0B2002802D0207B40062C
:1063E00006D43800C0B200280CD1207B000609D5A5
:1063F0000800B646C0B25FFA8EFE704501D120009B
:1064000004E0491C1CF1010CD0E70020BDE8F0813C
:10641000540C050010B5040000212000C0B200F0AB
:106420000DF810BD10B5040001212000C0B200F02D
:1064300005F82000C0B202F08CFD10BD2DE9F14F2F
:1064400086B00E0002F08FFE8DF80500FFF7E1F92F
:106450008DF804005FF0000840469DF80410C0B2BB
:10646000884280F0A3809DF81800FF2809D09DF88D
:106470001800FFF70FFF80464046C0B2FF2800F02B
:106480009D8057484146C9B2090100EB01099DF8BA
:106490001800FF2806D199F80C009DF805108842D5
:1064A00040F08180002007003800D9F808100979F1
:1064B000C0B2884273D2D9F8080001683A00D2B25B
:1064C0001420424301EB020ABAF8080040F22D11F1
:1064D000884201DB03F058F8002004002000BAF8DD
:1064E000081080B2884258D2DAF80410220092B222
:1064F0000C20424301EB020B9BF80400C0064AD477
:1065000099F800008DF80800BAF80000ADF80A000C
:106510009BF80400400601D5802000E040208DF863
:106520000C00BBF80000ADF80E0059465046FFF7CE
:1065300080FBADF810009BF8040040070CD59BF8D9
:106540000300032803DADBF8080005000FE0DBF89E
:106550000800006805000AE09BF80300032803DA3E
:106560001BF10800050002E0DBF80800050001202F
:10657000009000232A00002102A8FFF7B0FB3000A2
:10658000C0B2002807D05B46BDF80A2099F8001079
:10659000280000F04BFA641CA0E77F1C84E79DF8FC
:1065A0001800FF2802D118F1010855E73000C0B2E9
:1065B000002803D19DF8180000F014F807B0BDE8DA
:1065C000F08F000034D400206C95050004170500FE
:1065D000A41305006A950500F41605008CD600206A
:1065E0001CD60020FEB5040002F0BDFD0500012010
:1065F000FEF744FF06002000C0B2012809D02000A9
:10660000C0B2FF2825D130002900C0B2C9B28842EB
:106610001FD101237F22242102A803F059F9182059
:10662000009002AB13220021012003F0BEFA0423E4
:106630007F22252102A803F04BF92320019002A814
:10664000009041F20C134EF202021521012003F0DA
:10665000C7FA0220FEF712FF07002000C0B202288E
:1066600009D02000C0B2FF2813D138002900C0B2E1
:10667000C9B288420DD101237F22262102A803F04E
:1066800027F91820009002AB13220021022003F00A
:106690008CFA0A20FEF7F2FE06002000C0B20A289B
:1066A0000BD02000C0B2FF2840F08D8030002900C0
:1066B000C0B2C9B2884240F0868001237F222721E0
:1066C00002A803F005F91820009002AB1322002164
:1066D0000A2003F06AFA02237F22282102A803F08D
:1066E000F7F82120009002AB44F20B024FF4407106
:1066F0000A2003F05AFA02237F22292102A803F07C
:10670000E7F82120009002AB44F20C024FF44071F4
:106710000A2003F04AFA02237F222A2102A803F06A
:10672000D7F82120009002AB44F210024FF44071E0
:106730000A2003F03AFA01237F222B2102A803F05A
:10674000C7F840F201372020009002AB0022390048
:106750000A2003F02AFA01237F222C2102A803F049
:10676000B7F82020009002AB012239000A2003F084
:106770001CFA01237F222D2102A803F0A9F8202072
:10678000009002AB102239000A2003F00EFA012318
:106790007F222E2102A803F09BF82020009002AB5C
:1067A000112239000A2003F000FA01237F222F2151
:1067B00002A803F08DF82020009002AB12223900CD
:1067C0000A2003F0F2F90B20FEF758FE0700200024
:1067D000C0B20B280BD02000C0B2FF2840F08D8043
:1067E00038002900C0B2C9B2884240F08680012337
:1067F0007F22302102A803F06BF81820009002AB32
:10680000132200210B2003F0D0F902237F22312133
:1068100002A803F05DF82120009002AB44F20B02C5
:106820004FF440710B2003F0C0F902237F22322184
:1068300002A803F04DF82120009002AB44F20C02B4
:106840004FF440710B2003F0B0F902237F22332173
:1068500002A803F03DF82120009002AB44F21002A0
:106860004FF440710B2003F0A0F901237F22342163
:1068700002A803F02DF840F201362020009002AB70
:10688000002231000B2003F090F901237F223521F3
:1068900002A803F01DF82020009002AB0122310075
:1068A0000B2003F082F901237F22362102A803F096
:1068B0000FF82020009002AB102231000B2003F0D3
:1068C00074F901237F22372102A803F001F8202068
:1068D000009002AB112231000B2003F066F9012376
:1068E0007F22382102A802F0F3FF2020009002ABA3
:1068F000122231000B2003F058F91420FEF7BEFDE0
:1069000006002000C0B2142809D02000C0B2FF2821
:1069100013D130002900C0B2C9B288420DD1012381
:106920007F22392102A802F0D3FF1820009002AB89
:1069300013220021142003F038F91520FEF79EFDE4
:1069400007002000C0B2152809D02000C0B2FF28DF
:106950004BD138002900C0B2C9B2884245D10123C9
:106960007F223A2102A802F0B3FF1820009002AB68
:1069700013220021152003F018F904237F223B2164
:1069800002A802F0A5FF41F20C162320019002A8F4
:10699000009033004FF460424FF48061152003F003
:1069A0001FF902237F223C2102A802F091FF21203F
:1069B000019002A8009033004EF201024FF4806172
:1069C000152003F00DF902237F223D2102A802F0D9
:1069D0007FFF2120019002A8009033004EF21202A6
:1069E0004FF48061152003F0FBF83220FEF746FDDE
:1069F00006002000C0B2322809D02000C0B2FF2813
:106A000013D130002900C0B2C9B288420DD1012390
:106A10007F223E2102A802F05BFF1820009002AB0B
:106A200013220021322003F0C0F8F7BD2DE9FC4706
:106A300004000D0016001F003879800740F17B82AA
:106A40005FF004085FF00009EA464A4641465046B6
:106A500000F040FE002C01D1684604002800C0B2BE
:106A6000012836D1300080B2002814D1388813288C
:106A700040F061823800FFF7CAF8002840F05B82DE
:106A80003879400600F15782012322007F2124201B
:106A900002F07AFF4FE2300080B2152840F04B82BE
:106AA00038884EF20201884240F045823800FFF7F4
:106AB000AEF841F20C11884240F03D823879400630
:106AC00000F13982042322007F21252002F05CFF9F
:106AD00031E22800C0B2022819D1300080B200286B
:106AE00040F029823888132840F025823800FFF7CB
:106AF0008EF8002840F01F823879400600F11B8292
:106B0000012322007F21262002F03EFF13E228000D
:106B1000C0B20A2840F0BB80300080B2002814D1F7
:106B20003888132840F007823800FFF770F80028F3
:106B300040F001823879400600F1FD8101232200F6
:106B40007F21272002F020FFF5E1300080B2B0F570
:106B5000407F3CD1388844F20B0188420DD1380087
:106B6000FFF755F8002808D13879400605D40223EC
:106B700022007F21282002F007FF388844F20C0110
:106B800088420DD13800FFF742F8002808D1387943
:106B9000400605D4022322007F21292002F0F4FEC2
:106BA000388844F21001884240F0C5813800FFF770
:106BB0002EF8002840F0BF813879400600F1BB81F3
:106BC000022322007F212A2002F0DEFEB3E1300002
:106BD00040F2013180B2884240F0AD81388800280F
:106BE0000DD13800FFF713F8002808D13879400696
:106BF00005D4012322007F212B2002F0C5FE388816
:106C000001280DD13800FFF702F8002808D13879A3
:106C1000400605D4012322007F212C2002F0B4FE7F
:106C2000388810280DD13800FEF7F1FF002808D170
:106C30003879400605D4012322007F212D2002F05F
:106C4000A3FE388811280DD13800FEF7E0FF002898
:106C500008D13879400605D4012322007F212E2057
:106C600002F092FE3888122840F065813800FEF765
:106C7000CEFF002840F05F813879400600F15B814B
:106C8000012322007F212F2002F07EFE53E1280005
:106C9000C0B20B2840F0BB80300080B2002814D175
:106CA0003888132840F047813800FEF7B0FF0028ED
:106CB00040F041813879400600F13D8101232200F6
:106CC0007F21302002F060FE35E1300080B2B0F567
:106CD000407F3CD1388844F20B0188420DD1380006
:106CE000FEF795FF002808D13879400605D4022325
:106CF00022007F21312002F047FE388844F20C0147
:106D000088420DD13800FEF782FF002808D138797B
:106D1000400605D4022322007F21322002F034FEF7
:106D2000388844F21001884240F005813800FEF7AF
:106D30006EFF002840F0FF803879400600F1FB80AC
:106D4000022322007F21332002F01EFEF3E03000F8
:106D500040F2013180B2884240F0ED80388800284E
:106D60000DD13800FEF753FF002808D138794006CE
:106D700005D4012322007F21342002F005FE38884B
:106D800001280DD13800FEF742FF002808D13879DC
:106D9000400605D4012322007F21352002F0F4FDB6
:106DA000388810280DD13800FEF731FF002808D1AF
:106DB0003879400605D4012322007F21362002F0D5
:106DC000E3FD388811280DD13800FEF720FF002898
:106DD00008D13879400605D4012322007F213720CD
:106DE00002F0D2FD3888122840F0A5803800FEF766
:106DF0000EFF002840F09F803879400600F19B800C
:106E0000012322007F21382002F0BEFD93E02800FC
:106E1000C0B2142818D1300080B2002840F08B8016
:106E20003888132840F087803800FEF7F0FE0028ED
:106E300040F08180387940067DD4012322007F21F3
:106E4000392002F0A1FD76E02800C0B2152859D102
:106E5000300080B2002811D1388813286BD1380057
:106E6000FEF7D5FE002866D13879400663D40123A9
:106E700022007F213A2002F087FD5CE0300080B2E2
:106E8000B0F5806F57D13888B0F5604F0FD138001A
:106E9000FEF7BDFE41F20C11884208D13879400658
:106EA00005D4042322007F213B2002F06DFD3888A9
:106EB0004EF2010188420FD13800FEF7A8FE41F2E0
:106EC0000C11884208D13879400605D402232200EB
:106ED0007F213C2002F058FD38884EF21201884292
:106EE00029D13800FEF793FE41F20C11884222D1DD
:106EF000387940061FD4022322007F213D2002F072
:106F000043FD18E02800C0B2322814D1300080B20E
:106F1000002810D1388813280DD13800FEF777FEED
:106F2000002808D13879400605D4012322007F21AA
:106F30003E2002F029FDBDE8F38730B402000123B2
:106F40000024107B084201D100200FE018000D0042
:106F5000C0B2EDB2A84205D2107B184200D0641C2A
:106F60005B00F3E71069E4B250F8240030BC7047CE
:106F700010B504008B48201A8010020092B28A4893
:106F800001888A48FEF72DFE10BD2DE9FE4F83468D
:106F90000C0000214FF6FF75002600275846C0B2AE
:106FA000002805D0607D002802D15FF0020815E0BE
:106FB0005846C0B2002805D0607D012802D15FF09C
:106FC00001080BE05846C0B2002805D1607D0028BA
:106FD00002D15FF0080801E05FF004085FF00009EB
:106FE0004846C0B24A2854DADFF8B8A14846C0B2D1
:106FF0003AF82000BDF80410884247D14846C0B294
:107000000AEB8000C07810EA080F3FD04846C0B2B3
:107010000AEB800080789DF80810884236D3300053
:10702000C0B2002808D038004946C9B20AEB810135
:107030008978C0B2884229D34846C0B20AEB8000A2
:10704000C078C00622D54846C0B20AEB8000FFF7E0
:107050008FFF01003000C0B200280ED04846C0B2F9
:107060000AEB800080783A00D2B2904205D3080043
:107070002A0080B292B2904208D20120060048460F
:10708000C0B20AEB8000807807000D0019F10109F9
:10709000A6E7280080B2BDE8FE8F2DE9FE4F8346AB
:1070A0000C000D9D0026012700215846C0B2002883
:1070B00005D0607D002802D15FF0020815E0584637
:1070C000C0B2002805D0607D012802D15FF0010820
:1070D0000BE05846C0B2002805D1607D002802D1DF
:1070E0005FF0080801E05FF004085FF0000948461F
:1070F00080B24A2852DADFF8ACA0484680B23AF8AB
:107100002000BDF80410884245D1484680B20AEB01
:107110008000C07810EA080F3DD0484680B20AEBE4
:10712000800080789DF83810884234D3484680B279
:107130000AEB8000C078C0060DD5E07B00282AD07D
:10714000484680B20AEB8000FFF712FF218A80B226
:10715000814203D01FE0E07B00281CD19DF83C0059
:10716000310080B289B2884205D03000BDF83010BD
:1071700080B2884202D3002007000FE0484680B268
:107180000AEB800080780299320092B288542888F5
:10719000401C2880761C19F10109A8E73800C0B20C
:1071A000BDE8FE8FF00A050066950500180C050085
:1071B000EFF31180302181F31188704780F311883B
:1071C000704770477FB500F011F818B900F015F856
:1071D00003F05DF904B070BD7FB500F007F818B991
:1071E00000F00BF803F079F904B070BD04460846CE
:1071F00015461E4602A903F08CBA9DF82010BDF872
:10720000240033460091029901902A462046704797
:1072100080B500F00DF880B202BD80B500F008F82E
:10722000FA21B0FBF1F080B202BD000000BF000007
:10723000E0B503F051FA6A4603F0A9FA18B14C21FF
:1072400028A000F059F8DDE9000103B000BD0000FE
:1072500080B503F077FD03F0E1F820B15FF057014E
:1072600020A000F049F8002002BD0120104908705C
:107270007047FEB504462168002501B91CE000F006
:107280000CF808B100F002F8012019E00195009512
:10729000216800233A46301D94E7054E3570054FAE
:1072A0000023019500933A46301D95E70000000049
:1072B000C0F700206B72000000F075F90020FEBDE1
:1072C00003F01EFF307840B92146301D03F079F9F4
:1072D0002068852503F035FA01E000203070206039
:1072E0002846FEBD73797374656D2D74696D657282
:1072F0002E63000042DE704738B504000D0002F036
:1073000043F903F01DFF2900200003F01FFF2B00AD
:1073100022008D49212004F0EFF829002000FFF71A
:10732000E9FF31BD8949884205D20168B1F1CD3FFD
:1073300001D1001DF6E78649081A70472DE9F84F7C
:107340004FF42065834E84480068B0658348006828
:10735000F06583480068306682480068706682483D
:107360000068B06681480068F06681480068306750
:1073700080480068706780480068B06796F83800F9
:10738000400702D5D6F8409001E0D6F83C90CDF801
:10739000009004F0E7F87065776DDFF8B0810020A9
:1073A0003065B94529D3B8F12000484525D319F1F6
:1073B000180001687164001D0168B16410F10409CE
:1073C000B06DC005C00D06281CD1706C6B49884299
:1073D00018D3706C6A49884214D2706C00884DF6DC
:1073E000426188420ED17068C6F89400B068C6F851
:1073F000980040F20170050004E000207064002055
:10740000B0640097D6F854A05E48824500D2824608
:107410005046FFF787FFF06400200100C9B206293B
:1074200007D200210200D2B206EB8202D167401CD3
:10743000F3E700224346009898422BD21B1F18689E
:1074400004004E488442F6D34D488442F3D2E0070C
:10745000F1D5002083465846C0B2062809D25846C6
:10746000C0B206EB8000C06FA04202D01BF1010B3E
:10747000F1E75846C0B20628DDD11000C0B200289E
:1074800001D0521E00E005221000C0B206EB8000C1
:10749000C467D0E71000421EC0B2002818D0F06FB9
:1074A0000400002083465846C0B205280DD2584635
:1074B000C0B206EB8000D0F880005946C9B206EB96
:1074C0008101C8671BF1010BEDE7C6F89040E1E7C9
:1074D000B16DC905C90D0800032811D0042813D0C7
:1074E000052815D0062817D00C281ED03B2820D1FF
:1074F00025480068800702D540F2025005001FE0D1
:1075000040F6012005001BE040F60220050017E0D0
:1075100040F60320050013E0280080B2B0F5206F8C
:1075200002D140F6042005000AE040F605200500DF
:1075300006E0002904D04D2902D240F607200500BC
:10754000280080B2BDE8F28F8C36050040C30020D1
:1075500040C300200000002004ED00E024ED00E026
:1075600000E300E004E300E028ED00E02CED00E0A3
:1075700030ED00E034ED00E03CED00E0F4440000CC
:10758000DC0005009C0000201880014AEFF3108009
:10759000C00703D4EFF31180302801D3012000E0AD
:1075A0000020C0B27047002080F3118870477047F8
:1075B0007047704770477047704770477047704713
:1075C0007047F8B504000D0016001F009DF8180064
:1075D00000903B009BB23200D2B22900200080B262
:1075E000FFF7EEFFF1BD03000020704770477047C2
:1075F000010000207047704770470100002070476D
:10760000010000207047704710B40400012010BC36
:10761000704710B40400012010BC704770477047D9
:1076200070477047704770477047704762B38B0769
:1076300008D0521E11F8013B00F8013B00F02480F5
:107640008B07F6D1830740F0208000BF103A07D3A4
:1076500030B4B1E83810103AA0E83810F9D230BC94
:10766000530724BFB1E80810A0E8081044BF51F840
:10767000043B40F8043BD20724BF31F8022B20F82A
:10768000022B44BF0B7803707047121F17D35B00A7
:1076900009D151F8043B20F8023B1B0C121F20F8C3
:1076A000023BF6D20BE051F8043B00F8013B1B0A09
:1076B00020F8023B1B0C121F00F8013BF3D238BF2D
:1076C000121D521E24BF11F8013B00F8013BF8D8EF
:1076D0007047704762F30F2262F31F42401810F0A8
:1076E000030308D0C91A1FD3DB0748BF00F8012DD8
:1076F00028BF20F8022D130030B414461546103967
:1077000028BF20E93C00FAD8490728BF20E90C002F
:1077100048BF40F8042D890028BF20F8022D48BF3B
:1077200000F8012D30BC7047C91818BF00F8012DB2
:10773000CB0728BF00F8012D70477047704710B481
:107740000400012010BC704710B40400012010BCDC
:10775000704710B40400012010BC7047704710B48B
:107760000400002010BC7047030000207047030095
:107770000020704710B40400002010BC704710B403
:107780000400002010BC704710B40400002010BC9E
:1077900070470020704700207047020000207047AB
:1077A0000200002070470300002070470300B5204E
:1077B0007047704710B40400002010BC70470100EF
:1077C0008420704770477047704770477047704714
:1077D000704770470100012088814FF6FE70C88114
:1077E000012008610020087001207047030000207C
:1077F0007047704710B40400002010BC704710B4EC
:107800000400002010BC70470200002070470300F5
:10781000002070470300002070477047B520704774
:1078200001000020704701000020704770470300EE
:107830000020704770477047704770470300002072
:107840007047704770477047704770471CB5040019
:107850000120009001AB122200212000C0B202F0F2
:1078600018FA002802D19DF8040012E02000C0B2EE
:10787000FEF710FD01000800C0B2FF2808D0080084
:10788000C0B2072804D2DFF8A00AC9B2405C00E009
:10789000002016BD1CB504000220009001AB0022A0
:1078A00003212000C0B202F0F4F9C0B2002805D1D3
:1078B000BDF80400002801D0012000E00020C0B283
:1078C00016BDF0B4060014001D00049F0022002322
:1078D0003800C0B2092802D30020002126E05FF062
:1078E000000C60463900C0B2C9B2884212D21B02F5
:1078F00043EA126312023900C9B26046C0B2091AE3
:1079000006EB010010F8010C002112184B411CF18C
:10791000010CE6E7AB4206D801D3A24203D2A01A7B
:1079200075EB030102E0101B73EB0501F0BC70471F
:107930002DE9F0410400DFF8F4092168098801808D
:107940002168498841802168497901712168097954
:1079500041714FF48251C18021688979890603D52C
:10796000C18851F02001C18021688979490603D579
:10797000C18851F04001C180A06900280AD1E08887
:10798000DFF8AC190880DFF8AC09017811F0FD01CF
:10799000017011E0DFF89C09017851F002010170DB
:1079A0001625A669DFF89079B8462A0031004046CE
:1079B00000F0C6FE00203870BDE8F0812DE9F841E6
:1079C00087B000242000C0B200280AD12000C0B235
:1079D000FDF72DFDFF20FEF71DFDFDF741FD641CA9
:1079E000F0E7FDF716FF05001C2100226E4630006F
:1079F000FFF770FEFDF70DFF06000127DFF828896D
:107A00003A0031004046FFF765FEDFF82039DFF825
:107A10002C295221DFF8280903F002FFFDF7F3FBC0
:107A200003F0B2FF04F037FD04F08FFE05F02CF8F0
:107A300005F018FA05F017FC05F0BFFC06F0D2FBC4
:107A400006F095FC06F036FD07F0D1F9FEF727F8B1
:107A500008B0BDE8F08180B505F01EF801BD80B525
:107A600007F039FA002805D109F01CF8002801D1E7
:107A700006F05CF8FFF7D1FEFFF7DFFE01BD30B482
:107A8000020000234FF6FF70DFF8B8481D00ADB2CA
:107A900034F8355085421ED0180080B234F83000DA
:107AA0001500ADB2A84214D1100080B2B0F57C4FE1
:107AB0000CDB180080B204EBC00040880C00A4B2BC
:107AC000A04203D0080080B2002802D1180080B282
:107AD00001E05B1CD6E730BC704770B504000D00B8
:107AE000290089B2200080B2FFF7C9FF06003000EC
:107AF0004FF6FF7180B2884209D1220092B2DFF8BE
:107B00004818DFF8380B008809F02DF90DE0DFF890
:107B10003408310089B200EBC1004268DFF82C184C
:107B2000DFF8180B008809F01EF970BD1CB50400C1
:107B3000DFF8100B007800283ED009F029FA020087
:107B4000DFF8041B042009F00EF92068408800903B
:107B500020684379A289DFF8F41A042009F003F9B8
:107B6000042009F081F8002804D0218A2068408888
:107B7000FFF7B3FFE07B002805D0228ADFF8D01A98
:107B8000042009F0F0F8E07C0090A37CA068027863
:107B9000DFF8C01A042009F0E6F80123A289207D4D
:107BA000121A92B2A068217D0144042009F015FA4E
:107BB000A0A1042009F0C6F813BD38B50400206860
:107BC0004079FEF767FB05002800C0B2FF2815D1F9
:107BD000E37C20684288DFF8801A022009F0C3F8AD
:107BE000DFF8781A022009F0BEF820684279DFF841
:107BF000701A022009F0A6F800208AE0DFF8640A73
:107C00002900C9B209010144097B227F914217D0A2
:107C1000E37C20684288DFF8401A022009F0A3F8CC
:107C2000DFF8443A20684279DFF8401A022009F070
:107C30009AF8227F80A1022009F084F8002068E0F1
:107C40002900C9B209010144498822681288914279
:107C500027D0216809884FF6FF72914207D1290089
:107C6000C9B2090108444088B0F5004F19D3E37C3C
:107C700020684288DFF8E019022009F074F8DFF884
:107C8000F03920684279DFF8E419022009F06BF836
:107C900020680288DFF8DC19022009F053F8002080
:107CA00037E02079022802D02079032821D12068EA
:107CB00001892068407909F0B3FC002819D1E37CE0
:107CC00020684288DFF89019022009F04CF8DFF8AC
:107CD000A83920684279DFF89419022009F043F8A6
:107CE00020680289DFF88C19022009F02BF80020A7
:107CF0000FE0A07B002803D0200009F023FD02E064
:107D0000200009F06CFD002801D0012000E00020D7
:107D1000C0B232BD2DE9F84F05000E00170098469D
:107D20000A9CDDF82C90DDF830A03878400702D5A9
:107D30005FF0050B01E05FF0030B40465946C9B206
:107D400080B289B288420DD25846C0B200904346F4
:107D50009BB2DFF82829DFF82819042008F0F2FF89
:107D6000002064E0CAF800508AF80460AAF80640CF
:107D7000CAF80870AAF80C80387810F001008AF868
:107D80000E003878C0B2800810F001008AF80F00A9
:107D90003878C0B2C00810F001008AF81500012040
:107DA0008AF814009AF80F0000280FD0424692B2C9
:107DB0009AF8141089B238000AF021FAAAF81000D3
:107DC0009AF81400801C8AF8140002E00020AAF837
:107DD00010009AF81400411C8AF81410C0B2385CE4
:107DE0008AF812009AF81400411C8AF81410C0B2E4
:107DF000385C8AF81300BAF80C009AF8141089B2AB
:107E000088420DD29AF814000090BAF80C30DFF8CE
:107E10006C28DFF87018042008F094FF002006E0BA
:107E2000CAF8189001F09FF98AF81C000120BDE8FB
:107E3000F28F00005D000000256400002DE9F14F85
:107E400084B00D0016001F000F9C5FF00008DFF8E3
:107E500038B85846DFF834182022FFF7F7FBCDF882
:107E600008B00194BDF8380000903B009BB232008E
:107E70002900C9B20498FFF74DFF002800F0AC803C
:107E8000DFF8BC07C0F800B09BF81200DFF800185C
:107E900008705846FFF74AFE5846FFF749FD584616
:107EA00001F058F8002802D00120804694E0002C10
:107EB00052D12800C0B204280BD02800C0B2052837
:107EC00007D02800C0B2022803D02800C0B203287F
:107ED00002D15FF0010901E05FF00009BBF8060084
:107EE0000190DBF8000040880090DBF80000038878
:107EF0004A46D2B201219BF8130000F0CBF90028CA
:107F00002DD0DBF800008079800628D4DBF8000053
:107F10004288DFF88017022008F014FFDFF878A706
:107F200001208AF800000121584600F0A9F98DF8D7
:107F30000C009DF80C00002808D09DF80C30DFF8EC
:107F40005C27DFF85C17022008F0FCFE00208AF8AE
:107F50000000012080463FE0207D80073CD5DBF813
:107F600000004079FF2833D15FF00009FDF751FC94
:107F70004946C9B281422FD24846C0B2FEF79AF9AB
:107F800082464846C0B2FDF748FC00280AD0BBF83C
:107F90001020DBF8000041885046C0B2FDF7D0FF4A
:107FA000002800D111E05846FFF7C2FCDBF80000C2
:107FB00080F805A0DFF8740380F804A05846FFF7A6
:107FC000FCFD002801D00120804619F10109CDE710
:107FD0005846FFF7F2FD80460AF040F85FF01609B8
:107FE0005FF0000ADFF850B3524649465846FFF7A3
:107FF00071FB0020DFF8481608604046C0B205B0AB
:10800000BDE8F08FDFF89C060178491C017000780C
:1080100010F07F0070470100C9B2002906D0DFF8D8
:1080200014130A7852F001020A7005E0DFF8041315
:108030000A7812F0FE020A707047DFF86C160870BA
:108040007047002811D0DFF860160A78012A04D1A1
:10805000018851F04001018007E00978022904D12C
:1080600002884FF6BF710A4002807047002814D082
:10807000DFF838160A78012A08D1DFF8342612789A
:108080000A70017851F01001017006E009780229A8
:1080900003D1017851F01001017070472DE9FF41C3
:1080A0000400A44D2878C00706D5DFF80816022082
:1080B00008F048FE00207CE0DFF8841508680028FE
:1080C00013D0086800688079800604D59748C28874
:1080D00052F02002C280086800688079400604D50A
:1080E0009248C18851F04001C180954E30784007D8
:1080F00004D5DFF89C050078F07003E0DFF8900508
:1081000000787070287880070CD5492732008B489A
:1081100001888948FFF74AFB8046287810F0FD0067
:1081200028701BE0824801884FF6FC7291420BD206
:1081300055270194009681490B887C4A01880020CC
:108140000AF0D4FA804609E04227009433007B49C4
:108150000A88764900880AF0A0FA80467348807938
:10816000800602D5DFF8505500E06DA508F010FF3D
:10817000020002954046C0B201903800C0B20090A3
:10818000DFF83835DFF83815022008F0DBFDDFF8BE
:108190003415022008F0E7FD012368480288310009
:1081A000022008F01AFF5FA1022008F0CBFD404634
:1081B000C0B204B0BDE8F08180B50020FFF76EFFCB
:1081C00002BD38B504000D002A002100C9B2DFF855
:1081D0007004006800F009F832BD10B504000021F9
:1081E0002000C0B2FFF7EDFF10BDF8B504000D0090
:1081F00016002079002804D02079012801D0002021
:108200003DE0A0680078C00605D52800C0B200286F
:1082100001D1002033E0A07B002804D1E07C0B28B2
:1082200001D100202BE0002044490880607D002817
:1082300001D1082700E00027E07B002804D117F0D7
:10824000FB0009F02EFF07E057F00400C0B209F070
:1082500028FF208A09F038FFA07C09F022FF0B20BC
:1082600009F01FFFE07C09F01CFF2800C0B209F0F4
:1082700018FF2000FFF75CFB3000FFF70FFFF2BD97
:1082800038B504000D0000222900C9B22000FFF714
:10829000ACFF32BD2DE9F04105000E0017009846F5
:1082A000069CDFF824140878012804D0DFF8E803DE
:1082B0000078002805D00020DFF8DC1308700020CB
:1082C0002AE03000C0B2002805D13800C0B2002832
:1082D00001D0002020E00878002801D101201BE017
:1082E0000878012801D1002016E020004FF6574100
:1082F00080B2884201D101200EE02B00DBB23200B7
:10830000D2B2210089B2404680B2FFF728FA002895
:1083100001D0012000E00020BDE8F0810000000055
:10832000000000005D00000038DB002074DA00204F
:1083300026F80020A2FE002064DB0020F2F80020D6
:1083400080DA0020F8250500F42305000C24050040
:108350002DE9F04104000D0016004FF6FD775FF0A7
:108360005208B079800601D5B8F10908F0884005B7
:1083700001D5B8F10808F088000501D5B8F1080862
:10838000F088000401D5B8F102082000C0B200282E
:1083900008D0012808D002280CD0032810D00628C5
:1083A00011D011E02F000FE02800C0B20AF0F8FE53
:1083B000070009E02800C0B20BF01CF9070003E039
:1083C000B8F1010800E0FFE7380080B205F01AFFBD
:1083D000B8EB0000C0B2BDE8F0812DE9F047050020
:1083E0000C001600002C02D1002028701DE020781F
:1083F000FF2802D12078287017E0200009F038FF0C
:10840000070030003900C0B2C9B2884200D237003C
:10841000B8465FFA88F814F1010915F1010A4246DD
:108420004946504600F08CF92F70BDE8F0872DE9E1
:10843000F04705000C001600002C04D100206870E5
:108440006878287024E02078FF2806D16078FF281B
:1084500003D1FF20287068701AE0200009F010FF97
:1084600007003000390080B289B2884200D237005C
:10847000B8461FFA88F814F1020915F1020A4246BB
:108480004946504600F05CF92F70BFB23F0A6F704A
:10849000BDE8F0872DE9F04304001800C0B20028C1
:1084A00000F081801000C0B205287ADA5FF0000881
:1084B00000275FF0FF3C5FF0000E70469146C0B2AF
:1084C0005FFA89F9484531D2002C01D1002606E037
:1084D0001600F6B2761E7046C0B2361AA65DB146D8
:1084E0005FFA89F9501EB0EB0E00C0B2C00019FA55
:1084F00000F959EA080891465FFA89F9B9F10109CA
:108500007046C0B2B9EB000911F809000500A94690
:108510005FFA89F9501EB0EB0E00C0B2C00019FA24
:1085200000F959EA07071EF1010EC6E71000C0B2B4
:1085300004282BDA1000C0B2C000401EC14659FA10
:1085400000F95FEAC9700BD55FF00109D2B2D00023
:1085500019FA00F9BCEB090919F1010959EA0808EF
:108560001000C0B2C000401EB94659FA00F95FEAD7
:10857000C9700BD55FF00109D2B2D00019FA00F929
:10858000BCEB090919F1010959EA0707474501DA66
:1085900001203DE0B84502DA5FF0FF3038E000200E
:1085A00036E0002034E0002738009446C0B25FFA7D
:1085B0008CFC60452BD2002C01D1002606E0160071
:1085C000F6B2761E3800C0B2361AA65D94465FFA3F
:1085D0008CFCBCF1010C3800C0B2BCEB000C11F8F3
:1085E0000C0005002800B446C0B25FFA8CFC604560
:1085F00001D201200CE03000AC46C0B25FFA8CFC26
:10860000604502D25FF0FF3002E07F1CCCE7002023
:10861000BDE8F08310B4010000202C4A0300DBB257
:10862000D35C0C00E4B2A34201D2801CF5E7C0B2D7
:108630001044407810BC70470000000058FE002035
:1086400060DB0020B4CF0020142405001C240500AA
:108650003C24050048240500682405008824050002
:10866000A42405001CD60020D4240500AC24050059
:10867000DC240500E4240500EC2405001025050099
:10868000F42405001825050040DB0020982605008D
:10869000B9CF0020342505009EFE0020842505006A
:1086A0005C250500BACF00209FFE0020A0FE002020
:1086B000A1FE00208C250500D8250500D025050049
:1086C000B4250500E8250500B8CF0020B826050030
:1086D0000100C9B2282904DBC0B2302801DA012028
:1086E00000E00020C0B2704702001000C0B20028B5
:1086F00008D01C2811D01D2816D01E280DD01F28E8
:108700000BD018E00800C0B21B2803DA0800C0B282
:108710000B2801DA8A2011E00FE00800C0B21B2804
:1087200001DB8A200AE008E00800C0B2092801DB6A
:108730008A2003E001E08A2000E0002070477047B3
:1087400081423ABF53189842FEF770BF80189907CC
:1087500007D0521E24BF13F8011D00F8011DF6D8E2
:10876000704781071BD1103A07D330B433E9321078
:10877000103A20E93210F9D230BC1032121F24BF57
:1087800053F8041D40F8041DF8D838BF121D521EBE
:1087900024BF13F8011D00F8011DF8D87047121FFF
:1087A000F3D3C10709D153F8041D121F20F8041D8B
:1087B0004FEA31414180F6D2E7E753F8041D121F1A
:1087C00000F8041D4FEA3121A0F801104FEA3141B1
:1087D000C170F2D2D9E7704710B5DFF8D0442078E5
:1087E000012806D0032829D0042826D0052823D024
:1087F0002AE000F02AF80100C9B2022004F06DFC62
:1088000004F066F9002803D100F01FF8002808D012
:1088100004202070DFF898144FF6FF7008F092FAE9
:1088200009E003202070DFF88C144FF6FF7008F089
:1088300089FA0BF040F907E006E005E00CF098FB40
:10884000002801D10420207010BDDFF860040079F9
:1088500010F00100704710B504002000C0B20028DD
:1088600006D0DFF84804416851F00101416005E09D
:10887000DFF8380441684908490041600423DFF803
:1088800038247F21502001F07FF810BD10B504007E
:108890002000C0B2FDF75EFD010089B240F2011276
:1088A000914203D080B2B0F5867F01D1012000E073
:1088B0000020C0B210BD38B504002000C0B2FDF7E2
:1088C000F9FC05002800C0B2FFF7E0FF002803D044
:1088D0002800C0B20DF096FC31BDF8B504000D00C3
:1088E00016002000C0B2FDF7E5FC07003800C0B25A
:1088F000FFF7CCFF00280AD02000C0B2FDF7DAFC59
:10890000320092B22900C9B2C0B20DF043FCF1BDF1
:1089100010B504002000C0B2002803D02000C0B26F
:10892000012801D105F002FD10BD10B504002000A2
:10893000C0B2002803D02000C0B2012801D105F048
:10894000FCFC10BD70B504000D0016002000C0B284
:10895000002803D02000C0B2012803D12800C0B2F3
:1089600005F0F5FC70BD7CB504002000C0B204F039
:10897000EAF82000C0B2903812D0401E28D0C01EA5
:1089800037D0801E36D0801E032833D913380128F3
:1089900030D9801E33D0401E36D0401E21D038E062
:1089A000DFF81813012008F0CDF908F032F90500BE
:1089B0000DF0F3FD0600FEF739FC02006DB20095E4
:1089C000B6B23300DFF8F812012008F0BBF929E055
:1089D000FEF72CFC0200DFF8EC12012008F0B2F9DF
:1089E00020E0FEF723FC0200B749012008F0AAF9B5
:1089F00018E017E0B549012008F0A4F912E0B449E5
:108A0000012008F09FF90DE0B249012008F09AF921
:108A100008E0FEF70BFC2300DBB20200AE490120A8
:108A200008F090F9002076BD70B504000D00160026
:108A30000EF089F9042803D101209C49087002E056
:108A400001209A4908700CF05FFA0EF0FFF900203F
:108A500070BD80B500220021A04804F066F904230F
:108A60007F225021944800F033FF9D49012008F0F7
:108A700069F90CF054FA9B49012008F063F9372298
:108A800099494FF6FF7008F05DF901BD80B500F01F
:108A90000EF8002002BD80B508F004F80100C9B24C
:108AA000012902D0042901D000E0FFE701BD7CB517
:108AB000FFF7F1FF8D4C206810F1010F19D1042050
:108AC0000090230002221921012001F0FFF8060086
:108AD0004FF6FF753200D2B28549280008F032F90E
:108AE0003000C0B2002804D122688249280008F072
:108AF00029F90CF02DFA04007F480168091B016078
:108B00000168012904DA4FF4C8710160FFF764FEBF
:108B100073BD0100002070472DE9F84F04000D00DF
:108B200016001F00DDF828805FF00009C24628000B
:108B3000C0B200281FD0062840D1300080B20028E3
:108B400018D1BAF800303A00D2B26C494FF6FF7033
:108B500008F0F8F83800C0B20EF055FC0122BAF85F
:108B60000000C01C80100100C9B23800C0B20DF076
:108B700011FBFFE722E0300080B2012802D002287A
:108B80000CD01AE05E494FF6FF7008F0DBF83800B1
:108B9000C0B20AF07DFF012081460EE09AF800B0D5
:108BA0005946C9B23800C0B20AF090FF3800C0B2CE
:108BB00004F007F901208146FFE7FFE74846C0B20D
:108BC000BDE8F28F2DE9F04104000D0016002000F1
:108BD000C0B2142847D0152864D0362802D03728D0
:108BE0001CD060E033002A00D2B246494FF6FF7035
:108BF00008F0A8F8320092B200212800C0B20EF0AE
:108C0000E1FB2800C0B2322803D02800C0B2FF2800
:108C100003D100F051F90CF08DFD44E030000778ED
:108C200010F1010833002A00D2B237494FF6FF7025
:108C300008F088F82800C0B2022801D1FF20050002
:108C40000F2200212800C0B20EF0BCFB2800C0B2E9
:108C5000322803D02800C0B2FF2803D100F02CF93D
:108C60000CF068FD1FE029494FF6FF7008F06AF824
:108C7000FF200EF0C8FB0027FCF7CBFD874210DA7F
:108C8000DFF88C80380118F800000EF006FD002295
:108C90000100C9B2380118F800000CF0D9FA7F1CA5
:108CA000EAE700E0FFE7BDE8F081000028CA002005
:108CB00034520500685205002CCA0020A452050059
:108CC000BC520500EC520500005305001C53050082
:108CD0003C5305005C5305007853050040630500D4
:108CE00090530500A8530500BC5305003CCA002062
:108CF000CC530500D853050024F50020E8530500A7
:108D00005C540500BC54050028550500905505002D
:108D10001CD600202DE9F04104000D0016001F00B4
:108D2000688834280FD15FF0040803F06FFF002833
:108D300001D002208046022200214046C0B203F04A
:108D4000CBFE012000E00020BDE8F0812DE9F14FCD
:108D500086B0884614001D00109E0127404680B250
:108D600040F20131884232D1208836282ED12800A5
:108D700041F20C1180B2884228D19DF818000A28CF
:108D800002D00B2809D011E012237F224E21684621
:108D900000F09EFD0020070008E012237F224F21F3
:108DA000684600F095FD00200700FFE73800C0B2DC
:108DB00000280BD15FF01209EA4616F1010B4A4672
:108DC00051465846FEF732FC12203070FFE738005B
:108DD000C0B207B0BDE8F08F2DE9F84F86B00400AF
:108DE0000D0016001F00DDF840805FF0010928002B
:108DF00080B240F2013188422ED1308836282AD103
:108E0000380041F20C1180B2884224D15FF0120A7E
:108E100018F1010000900DF1040B524600995846DC
:108E2000FEF704FC2000C0B20A2802D00B2809D0AB
:108E300011E0122301AA7F214E2000F0A5FD0020A1
:108E4000814608E0122301AA7F214F2000F09CFDFB
:108E500000208146FFE7FFE74846C0B207B0BDE803
:108E6000F08F10B504002000C0B2002802D10CF031
:108E700061FC05E02000C0B2012801D10CF07AFCB1
:108E8000012010BD80B50CF095FC012002BD10B58D
:108E900004002000C0B2002802D00CF09CFC01E0CD
:108EA0000CF0AAFC012010BD10B504002000C0B2D7
:108EB0000CF0B3FC012010BD80B50CF0C7FC012004
:108EC00002BDFEB504000D001600280080B20E2879
:108ED00002D0162816D02BE00120019002A80090A5
:108EE00041F20C130E224FF61641322000F00BFF18
:108EF00007003800C0B2002803D19DF808000CF02C
:108F0000BCFC15E00120019002A8009041F20C1376
:108F100016224FF61641322000F0F5FE0700380009
:108F2000C0B2002803D19DF808000CF0C2FCFFE796
:108F3000F7BD80B5FFF78DFDFEF740FD01BD80B5A3
:108F4000FFF7B5FDFEF787FD01BD80B5FEF731FCEB
:108F500001BD704710B50400200005F03CFA002860
:108F600004D1200003F04CFE002801D0012000E0D5
:108F70000020C0B210BDF8B504000D0016001F009F
:108F80003B009BB232002900200080B2FFF7C2FEF6
:108F9000002809D13B009BB232002900200080B29A
:108FA00003F096FE002801D0012000E00020C0B2AE
:108FB000F2BD10B40400002010BC704738B50400A6
:108FC0000D002900C9B22000FEF73BFC31BD70B591
:108FD00004000D001600320092B22900200080B279
:108FE000FEF715FC70BD70B504000D0016003200D0
:108FF00092B22900200080B2FEF719FC70BD7047C4
:109000002DE9F0427E4E002030707E4C20683821E1
:1090100038250EF085FC33787B49087822686B434D
:10902000D054307821680022684308444270307878
:1090300021686843084482700EF094FC32782168FD
:109040006A430A4410720EF08DFC327821686A433C
:109050000A445072317820686C4A694301441078A0
:109060006B4AC8703378216817686B43C81847612A
:1090700068490A7802763078D4F800C0664A074614
:1090800015FB07F312680CEB0301CA61634AD2F8BF
:1090900000902C22574309EB07020CF13407FA50D9
:1090A0000EF074FC3078216815FB00F501F13402F4
:1090B00051594A680968BDE8F0420EF0EEBE80B52D
:1090C00092B06A46002100200FF0C3F808B10120D9
:1090D00018E05349534A0A910B925349534A0C9151
:1090E0000D9210915248534A53490990534B0F9295
:1090F00011910E936A46002100200EF0CFFF00B1BF
:109100000120C0B213B000BD80B5002000F01AF8F5
:1091100028B1002000F005F808B1002002BDFF20B2
:1091200002BD374A37481378016838204343C818CE
:10913000807802281CBF1128432801D101207047E4
:10914000002070472E4A2F48137801683820434387
:10915000C818407801281CBF0228032801D101202B
:109160007047002070470020704770207047002033
:1091700070477047002070470120704770470020FB
:109180007047704770470020704780B500F020F8A6
:1091900020B10020FFF7D6FF00B1012002BD80B54D
:1091A00000F016F808B1002002BDFF2002BD10B586
:1091B000044600F00DF848B100F019F84078012895
:1091C00018BF022802D10CB9012010BD002010BD2B
:1091D0000020A6E780B5FFF7FBFF30B100F007F8ED
:1091E0004178032901DA002002BDFF2002BD044AB4
:1091F00004481378016838204343C81870470000BA
:10920000FFFE002090CA0020D8CF0020D9CF002038
:1092100098CA0020CECF00209CCA002094CA00200B
:109220002FE50200BD75000005E60200310B0400C9
:109230009BE30200BD84020095C10200FBE702002F
:10924000002100200FF0DDB87047002818BF0FF094
:10925000CCBB70470DF00FBD0DF03FBB33B585B0F3
:1092600005468DF8042007F081FB0446284607F0E8
:109270008DFB7CB10028BDF818000FD107F0E4FC8D
:10928000FF288DF8000004BF00218DF80010CDF8F4
:1092900008D016E0A8B106A8029012E007F0D4FCAE
:1092A000FF288DF8000003AA04BF00218DF80010EC
:1092B0009DF80000BDF8181002928DF80C00ADF872
:1092C0000E10DDE901010A460146284605F0F8F8CE
:1092D00007B030BD010049B200290AD4012210F0C4
:1092E0001F018A40DFF8D41203005BB25B0941F82A
:1092F00023207047010049B200290AD4012210F04E
:109300001F018A40DFF8B81203005BB25B0941F825
:109310002320704742F218028150704741F21C022C
:1093200081507047406810F0010070470068C840E5
:1093300010F00100704738B505000C002800C0B2DD
:10934000002801D17F203CE02800C0B2012801D1D3
:10935000032036E02800C0B2022801D13F2030E0CF
:109360002800C0B2032801D11F202AE02800C0B283
:10937000042801D1002024E02800C0B2052801D132
:1093800000201EE02800C0B2062801D1002018E00D
:109390002800C0B2072801D1002012E02800C0B286
:1093A000082801D100200CE02800C0B2092801D112
:1093B000002006E02800C0B20A2801D1002000E009
:1093C0000020E04010F001002100DFF8F8212B0020
:1093D000DBB23020434302EB03001430FFF7A6FF5B
:1093E00032BD30B40200D2B2002A01D17F223CE06B
:1093F0000200D2B2012A01D1032236E00200D2B229
:10940000022A01D13F2230E00200D2B2032A01D168
:109410001F222AE00200D2B2042A01D1002224E055
:109420000200D2B2052A01D100221EE00200D2B20F
:10943000062A01D1002218E00200D2B2072A01D187
:10944000002212E00200D2B2082A01D100220CE070
:109450000200D2B2092A01D1002206E00200D2B2F3
:109460000A2A01D1002200E00022CA4012F00102C3
:1094700001238B40DFF850410500EDB23022554307
:1094800004EB0502136130BC704730B40200D2B265
:10949000002A01D17F223CE00200D2B2012A01D190
:1094A000032236E00200D2B2022A01D13F2230E08C
:1094B0000200D2B2032A01D11F222AE00200D2B256
:1094C000042A01D1002224E00200D2B2052A01D1EF
:1094D00000221EE00200D2B2062A01D1002218E0CA
:1094E0000200D2B2072A01D1002212E00200D2B259
:1094F000082A01D100220CE00200D2B2092A01D1CF
:10950000002206E00200D2B20A2A01D1002200E0C5
:109510000022CA4012F0010201238B402B4C0500AF
:10952000EDB23022554304EB0502136130BC7047A5
:1095300080B50FF065FB01BD1FB56846244991E871
:109540001C0080E81C0001208DF800000D208DF823
:10955000060003208DF80700082124200FF04CFDA1
:109560001C4C6946200010F0CCF92B20FFF7C2FEFE
:1095700002212000FFF7CEFE2B20FFF7ABFE0221D9
:109580002000FFF7CBFE1FBD80B5124810F0A8F9F0
:1095900001BD10B504002000C0B2A52803D10021F0
:1095A0000C4810F089F910BD80B50A48FFF7BAFEE3
:1095B00002BD094800680028FBD1704700E100E0C7
:1095C00080E200E000C0034000E0034000D0034020
:1095D000884305000080014A2480014A10B5040038
:1095E00014F00F0120000009C0B2FFF7FAFE10BD11
:1095F00010B5040014F00F0120000009C0B2FFF7FD
:1096000044FF10BD10B5040014F00F012000000944
:10961000C0B2FFF790FE10BD2DE9F04786B010F004
:10962000B8F9002801D0C6204FE1DFF84874DFF810
:109630004884D8F80010386811F05EFD0500002D50
:1096400044D0D8F800004168D8F800000068D8F885
:10965000002092691268904702A8D8F80010896922
:10966000896888470220D8F800108969C968884746
:1096700000208146D8F8000040680399B0FBF1F063
:109680004946C9B2814210D2D8F8000000684A4663
:10969000D2B2039901FB0200D8F800108969096968
:1096A0008847050019F10109E4E70020D8F8001007
:1096B0008969C9688847D8F8000080694068804790
:1096C000D8F80010386811F017FD05005FF00008A9
:1096D0004046C0B2552880F2C480002D40F0BE80C4
:1096E000DFF898034146C9B2405C00282FD0DFF86C
:1096F000909301AB6A464046C0B259F820103868D2
:1097000011F004FF0400DFF87C03844206D0002C33
:1097100040F0A4800098012800F0A080002C06D121
:109720004046C0B259F82010386811F02DFFDFF81C
:1097300058034146C9B250F8210002684046C0B201
:1097400059F82010386811F026FE050086E0002048
:109750000600DFF8389330004146C9B219F801100D
:10976000C0B2884248D2DFF818A301AB6A4640462F
:10977000C0B25AF820103000C0B24118386811F059
:10978000C5FE0400DFF8FC0284420CD0002C31D16D
:109790000098002807D10198DFF8F4124246D2B2AF
:1097A000895C884226D0002C0CD10098002809D072
:1097B0004046C0B25AF820103000C0B24118386894
:1097C00011F0E2FEDFF8C8024146C9B2435CDFF89F
:1097D000B8024146C9B250F821204046C0B25AF8FA
:1097E00020103000C0B24118386811F049FD050062
:1097F000002D01D1761CACE7DFF898024146C9B2D2
:10980000405C00282AD04046C0B219F8000006008B
:109810003000C0B27F2821D2DFF8649201AB6A46E3
:109820004046C0B259F820103000C0B24118386824
:1098300011F06CFE0400DFF84C0284420ED040466A
:10984000C0B259F820103000C0B24118386811F089
:109850009BFE0500002D01D1761CD9E718F1010807
:1098600036E7002D04D10120DFF82C12087003E048
:109870000020DFF8241208702800002815D0DFF837
:109880001C12401A08D0401E09D0801E0AD0001FAA
:109890000ED15FF0C1090DE05FF0C2090AE05FF090
:1098A000C30907E05FF0C40904E05FF0000901E0CC
:1098B0005FF0C5093868007C002804D0D321DFF8A8
:1098C000E001FDF719FD4846C0B206B0BDE8F087DB
:1098D0002DE9F84305000E001700984600243000DB
:1098E00080B2552834DADFF8B0010078002844D07F
:1098F000DFF88801310089B2405C00280DD02A00D1
:10990000DFF87C01310089B250F82110DFF86401E2
:10991000006811F081FD04002FE03800C0B27F28FC
:1099200002D15FF0000900E0B9464346DBB22A00ED
:10993000DFF84C01310089B250F821104846C0B21E
:109940004118DFF83001006811F0DFFC040014E07A
:10995000300080B2B0F5807F09D34346DBB23A00D5
:10996000D2B2310089B2280011F005FF05E040F2C3
:109970000111DFF82C01FDF7BFFC002C02D0200004
:1099800012F018F8BDE8F1832DE9F84305000E0048
:10999000170098460024280080B2552834DADFF8F2
:1099A000F8000078002842D0DFF8D000290089B202
:1099B000405C00280DD03A68DFF8C400290089B265
:1099C00050F82110DFF8AC00006811F0E4FC04004E
:1099D0002DE03000C0B27F2802D15FF0000900E026
:1099E000B1464346DBB23A00DFF89400290089B261
:1099F00050F821104846C0B24118DFF878000068DE
:109A000011F03EFC040012E0280080B2B0F5807F27
:109A100007D34246D2B23900280080B211F03DFF90
:109A200005E04FF49A71DFF87800FDF765FC002C33
:109A300002D0200011F0BEFFBDE8F18338B505006B
:109A40000024DFF85400007800280CD00022DFF852
:109A500030002900C9B250F82110DFF81800006862
:109A600011F00CFD0400002C02D0200011F0A2FF28
:109A700031BD00008CC80020ACC80020105A050081
:109A8000BC5805000BE000F0D05E0500185B050037
:109A9000C05A0500685A0500DCFE002001E000F015
:109AA0001C4505002DE9F04F85B006000F009046DB
:109AB00099460E9CDDF83CA0109D2800C0B2029093
:109AC000CDF804A0200080B200904B46DBB24246A5
:109AD00092B2390089B23000C0B2FDF730FE834641
:109AE0005846C0B2002803D0022803D002D31FE09A
:109AF00001201FE05846C0B2022801D1012000E039
:109B0000002000210491C0B203902800C0B202904E
:109B1000CDF804A0200080B200904B46DBB2424654
:109B200092B2390089B23000C0B200F01DFB01E0F2
:109B30005846C0B205B0BDE8F08FF0B585B004005E
:109B40000D0016001F0000200490012003909DF8D6
:109B50002C0002900A980190002000903B00DBB29C
:109B6000320092B2290089B22000C0B200F0FCFAA3
:109B700005B0F0BDF0B585B004000D0016001F0063
:109B800000200490012003909DF828000290019786
:109B9000002000908023320092B2290089B2200078
:109BA000C0B200F0E1FA05B0F0BDF0B585B0040038
:109BB0000D0016001F0000200490012003909DF866
:109BC000280002900197002000904023320092B2BA
:109BD000290089B22000C0B200F0C6FA05B0F0BD7D
:109BE000F0B585B004000D0016001F0000200490A1
:109BF000012003909DF82C0002900A9801903800F3
:109C000080B200904023320092B2290089B2200035
:109C1000C0B200F0A9FA05B0F0BDF0B585B00400FF
:109C20000D0016001F0001200490002003909DF8F5
